:100000000C9434000C9451000C9451000C94510049
:100010000C9451000C9451000C9451000C9451001C
:100020000C9451000C9451000C9451000C9451000C
:100030000C9451000C9451000C9451000C945100FC
:100040000C9475070C9451000C9451000C945100C1
:100050000C9451000C9451000C9451000C945100DC
:100060000C9451000C94510011241FBECFEFD8E026
:10007000DEBFCDBF13E0A0E0B1E0E0EAFCE102C0EA
:1000800005900D92A634B107D9F714E0A6E4B3E0C9
:1000900001C01D92A833B107E1F70E9428070C9414
:1000A0004E0E0C940000A0E0B0E0E9E5F0E00C9406
:1000B0009B0DDC012B01FA019C91923008F439C1AF
:1000C000EB018881823008F433C1943069F48430C4
:1000D00009F02FC111969C9111978981981709F405
:1000E00028C1A0E0B1E025C1843009F421C18230EB
:1000F000A9F4923009F01DC19A01AD0188E0EA012E
:100100000990AE01E90109929E018150C1F7E20117
:10011000898111969C918923818308C1923009F4C9
:1001200007C112962D903C901397EB018A819B8119
:100130001496AD90BD90CD90DC901797EC80FD802B
:100140000E811F819101281B390BB90137FF04C0B3
:1001500066277727621B730B603271050CF061C054
:10016000121613066CF537014801062E04C096944A
:100170008794779467940A94D2F721E030E040E0C6
:1001800050E004C0220F331F441F551F6A95D2F759
:1001900021503040404050402E213F2140235123E8
:1001A000211531054105510521F021E030E040E005
:1001B00050E079018A01E628F728082919293CC06E
:1001C000232BD1F1260E371E35014601062E04C021
:1001D00096948794779467940A94D2F721E030E05C
:1001E00040E050E004C0220F331F441F551F6A95A2
:1001F000D2F721503040404050402A213B214C2131
:100200005D21211531054105510521F021E030E046
:1002100040E050E059016A01A628B728C828D9282B
:100220000BC0821593052CF01C01AA24BB24650188
:1002300003C0EE24FF24870111969C91D2011196F0
:100240008C91981709F445C0992339F0A8019701BA
:100250002A193B094C095D0906C0A60195012E1912
:100260003F09400B510B57FD08C011823382228297
:1002700024833583468357831DC081E08183338285
:10028000228288279927DC01821B930BA40BB50BD4
:1002900084839583A683B7830DC0220F331F441F29
:1002A000551F248335834683578382819381019729
:1002B000938382832481358146815781DA01C90184
:1002C0000197A109B1098F5F9F4FAF4FBF4328F33B
:1002D0000BC0918333822282EA0CFB1C0C1D1D1D76
:1002E000E482F5820683178383E08083248135814D
:1002F0004681578157FF1AC0C901AA2797FDA095CB
:10030000BA2F81709070A070B07056954795379550
:100310002795822B932BA42BB52B84839583A683BF
:10032000B78382819381019693838283DF0101C029
:10033000D201CD01CDB7DEB7E2E10C94B70DA0E25A
:10034000B0E0E5EAF1E00C94A70D69837A838B8332
:100350009C832D833E834F835887E9E0EE2EF12C5A
:10036000EC0EFD1ECE010196B7010E94CD048E0158
:100370000F5E1F4FCE010596B8010E94CD048A89F9
:1003800091E089278A8BC701B801AE01475E5F4FB4
:100390000E9453000E94F803A096E6E00C94C30D5F
:1003A000A0E2B0E0E6EDF1E00C94A70D69837A835A
:1003B0008B839C832D833E834F835887F9E0EF2EF8
:1003C000F12CEC0EFD1ECE010196B7010E94CD046A
:1003D0008E010F5E1F4FCE010596B8010E94CD041D
:1003E000C701B801AE01475E5F4F0E9453000E94F3
:1003F000F803A096E6E00C94C30DA0E2B0E0E3E0C1
:10040000F2E00C949B0D69837A838B839C832D830C
:100410003E834F835887CE010196BE01675F7F4FB1
:100420000E94CD04CE010596BE016F5E7F4F0E94F3
:10043000CD049985923088F089898230C8F0943053
:1004400019F4823051F404C0843029F4923081F4DC
:1004500080E091E0C6C0923049F420E09A858A8914
:10046000981321E02A87CE010996BBC0823049F457
:1004700020E09A858A89981321E02A8BCE01419643
:10048000B0C02D843E844F8458886D887E888F88C4
:10049000988CEE24FF248701AA24BB24650140E048
:1004A00050E060E070E0E0E0F0E0C1018170907049
:1004B000892BE9F0E60CF71C081D191D9A01AB0108
:1004C0002A0D3B1D4C1D5D1D80E090E0A0E0B0E0DA
:1004D000E614F7040805190520F481E090E0A0E097
:1004E000B0E0BA01A901480F591F6A1F7B1FAA0C6F
:1004F000BB1CCC1CDD1C97FE08C081E090E0A0E096
:10050000B0E0A82AB92ACA2ADB2A3196E032F105DE
:1005100049F0660C771C881C991C569447943794B4
:100520002794C3CFFA85EA892B893C898B859C85E2
:10053000280F391F2E5F3F4F17C0CA01817090707E
:10054000892B61F016950795F794E79480E090E089
:10055000A0E0B0E8E82AF92A0A2B1B2B76956795CC
:10056000579547952F5F3F4F77FDE7CF0CC0440F5E
:10057000551F661F771F17FD4160EE0CFF1C001F03
:10058000111F21503040403090E0590790E069073A
:1005900090E4790760F32B8F3C8FDB01CA018F77E2
:1005A0009070A070B07080349105A105B10561F420
:1005B00047FD0AC0E114F1040105110529F0405C72
:1005C0005F4F6F4F7F4F40781A8EFE1711F081E01A
:1005D0008A8F4D8F5E8F6F8F78A383E0898FCE01D6
:1005E00049960E94F803A096E2E10C94B70DA8E0AA
:1005F000B0E0EDEFF2E00C94A40D9B01AC0183E0C0
:100600008983DA01C9018827B7FD83959927AA272D
:10061000BB27B82E211531054105510519F482E09B
:1006200089833AC08823A9F0203080E0380780E031
:10063000480780E8580729F460E070E080E09FEC0C
:1006400030C0EE24FF248701E21AF30A040B150BD5
:1006500002C079018A018EE1C82ED12CDC82CB82C6
:10066000ED82FE820F831887C801B7010E94A9039B
:1006700001971816190684F4082E04C0EE0CFF1C0E
:10068000001F111F0A94D2F7ED82FE820F83188794
:10069000C81AD90ADC82CB82BA82CE0101960E94A6
:1006A000F8032896E9E00C94C00DACE0B0E0EBE56F
:1006B000F3E00C94AB0D69837A838B839C83CE012A
:1006C0000196BE016B5F7F4F0E94CD048D81823009
:1006D00061F1823050F1843021F48E81882351F110
:1006E0002EC02F81388537FD20C06E812F31310516
:1006F0001CF06623F9F023C08EE190E0821B930B7F
:1007000029853A854B855C8504C056954795379574
:1007100027958A95D2F76623B1F05095409530958C
:1007200021953F4F4F4F5F4F0EC020E030E040E03B
:1007300050E009C02FEF3FEF4FEF5FE704C020E02C
:1007400030E040E050E8B901CA012C96E2E00C9498
:10075000C70DEF92FF920F931F937B018C0180E0F6
:10076000E81680E0F80681E0080780E0180788F4C2
:100770008FEFE816F1040105110531F028F088E04B
:1007800090E0A0E0B0E017C080E090E0A0E0B0E032
:1007900012C080E0E81680E0F80680E0080781E0FB
:1007A000180728F088E190E0A0E0B0E004C080E104
:1007B00090E0A0E0B0E020E230E040E050E0281B14
:1007C000390B4A0B5B0B04C016950795F794E79419
:1007D0008A95D2F7F701E85FFE4F8081281B310927
:1007E00041095109C9011F910F91FF90EF900895A0
:1007F000DF92EF92FF920F931F93FC01E480F5804C
:1008000006811781D1808081823048F480E090E0B9
:10081000A0E1B0E0E82AF92A0A2B1B2BA5C08430FE
:1008200009F49FC0823021F4EE24FF24870105C023
:10083000E114F1040105110519F4E0E0F0E096C0BF
:10084000628173819FEF623879070CF05BC022E808
:100850003FEF261B370B2A3131052CF020E030E02A
:1008600040E050E02AC0B801A701022E04C07695EE
:100870006795579547950A94D2F781E090E0A0E0FC
:10088000B0E004C0880F991FAA1FBB1F2A95D2F79A
:100890000197A109B1098E219F21A023B1230097BF
:1008A000A105B10521F081E090E0A0E0B0E09A015F
:1008B000AB01282B392B4A2B5B2BDA01C9018F772F
:1008C0009070A070B07080349105A105B10539F425
:1008D00027FF09C0205C3F4F4F4F5F4F04C0215C92
:1008E0003F4F4F4F5F4FE0E0F0E02030A0E03A078D
:1008F000A0E04A07A0E45A0710F0E1E0F0E0790137
:100900008A0127C06038710564F5FB01E158FF4F8B
:10091000D801C7018F779070A070B07080349105B6
:10092000A105B10539F4E7FE0DC080E490E0A0E038
:10093000B0E004C08FE390E0A0E0B0E0E80EF91E64
:100940000A1F1B1F17FF05C016950795F794E7941C
:10095000319687E016950795F794E7948A95D1F735
:1009600005C0EE24FF248701EFEFF0E06E2F6795BE
:1009700066276795902F9F77D794DD24D7948E2F85
:100980008695492F462B582F5D29B701CA011F9123
:100990000F91FF90EF90DF900895FC01DB01408103
:1009A00051812281622F6F7770E0221F2227221F40
:1009B0009381892F880F822B282F30E0991F992748
:1009C000991F11969C93119721153105A9F5411591
:1009D00051056105710511F482E037C082E89FEF8F
:1009E00013969C938E9312979A01AB0167E0220FA6
:1009F000331F441F551F6A95D1F783E08C930DC0B8
:100A0000220F331F441F551F12968D919C911397EF
:100A1000019713969C938E931297203080E03807AD
:100A200080E0480780E4580758F314962D933D93CF
:100A30004D935C93179708952F3F310579F4411535
:100A400051056105710519F484E08C93089564FFE4
:100A500003C081E08C9312C01C9210C02F5730400D
:100A600013963C932E93129783E08C9387E0440F68
:100A7000551F661F771F8A95D1F7706414964D93A2
:100A80005D936D937C9317970895CF93DF93EB015C
:100A9000FC01C115D10509F45BC02191319141914F
:100AA000B8E0AFB7F894289A37FD01C0289837FD11
:100AB00000C0000000000000000000000000330F34
:100AC000BA95289881F7B7E0289A27FD01C02898A1
:100AD00027FD00C000000000000000000000000032
:100AE000220FBA95289881F70000289A27FD01C0A7
:100AF000289827FD00C000000000000021913191DE
:100B0000B7E0289800000000289A47FD01C0289807
:100B100047FD00C0000000000000000000000000D1
:100B2000440FBA95289881F70000289A47FD01C024
:100B3000289847FD00C000000000B8E0219719F098
:100B400041912898B0CF0000289800000000AFBF66
:100B5000DF91CF910895E4E5F3E0108211821282D3
:100B6000339684E0EC32F807C1F784E593E068E45B
:100B700070E00E9445050895AF92BF92CF92DF9238
:100B8000EF92FF920F931F93CF93DF9360E070E09B
:100B9000F7E0CF2ED12CE8E0EE2EF12C24C0CA01D4
:100BA0000196F801918380839601281B390B3983C4
:100BB000288311965C934E939701281B390BF501FE
:100BC00031832083045F1F4F2C961C962CE030E06D
:100BD000A20EB31EAC018630910509F76E5F7F4F00
:100BE00066307105E1F09B01220F331F8901025627
:100BF0001D4F6F5F7F4FCB01880F991F6150704071
:100C0000EC01C256DD4FD901AA51BD4F26EEA22EEE
:100C100022E0B22EA80EB91E40E050E0C0CFDF9116
:100C2000CF911F910F91FF90EF90DF90CF90BF90E9
:100C3000AF90089561E070E070932F0360932E03EE
:100C400044E050E050933B0340933A0382E090E04D
:100C5000909331038093300370933D0360933C0382
:100C600023E030E0309333032093320390933F032B
:100C700080933E03509335034093340330934103F4
:100C800020934003709337036093360350934303DC
:100C90004093420390933903809338037093450344
:100CA000609344030895FC01EE0FFF1FE05DFB4FCE
:100CB000208131812F5F3F4F318320838130910527
:100CC00009F052C0245F31400CF47EC080914A0389
:100CD00090914B03892BD9F580914603909147035E
:100CE000019690934703809346038130910539F430
:100CF00084EB90E0909351038093500308C00297D7
:100D000031F410925103109250030E94AB05809170
:100D1000460390914703039741F40E94BC0510924B
:100D20004F0310924E030E94AB05809146039091B1
:100D30004703049764F00E941A060E94AB051092C4
:100D40004F0310924E0310924703109246031092E5
:100D50004D0310924C031092090210920802109257
:100D60003304109232040895029771F5809134048F
:100D700090913504845F91403CF180914A039091B9
:100D80004B03892B39F481E090E090934B038093DF
:100D90004A0304C010924B0310924A030E94AB0511
:100DA0000E94BC050E941A0610924F0310924E0337
:100DB00010924D0310924C0310920B0210920A02F3
:100DC00010923504109234040895DC01FC01EE0FFA
:100DD000FF1FE45DFB4F80819181019691838083A9
:100DE0008A3F9105BCF0A130B10529F4B093090206
:100DF000A093080209C0A230B10531F481E090E06F
:100E000090930B0280930A02AA0FBB1FA45DBB4FF5
:100E10001D921C92089590917C008770892B80937D
:100E20007C0080917C00806280937C0080917A00BD
:100E3000806480937A0080917A0084FDFCCF809159
:100E40007A00806180937A008091790090E0089523
:100E5000209A2898409A419A429A17B880E4809341
:100E60007C0087E880937A008FE78AB9509A85B52D
:100E7000816085BD80916E00816080936E00789462
:100E8000E4E5F3E0108211821282339684E0EC32C2
:100E9000F807C1F784E593E068E470E00E94450537
:100EA00030990AC08091080290910902019721F4BB
:100EB00081E090E00E945306309B04C081E090E006
:100EC0000E94E50631990AC080910A0290910B02B6
:100ED000019721F482E090E00E945306319BE0CF1D
:100EE00082E090E00E94E506DBCF1F920F920FB6E2
:100EF0000F9211242F923F924F925F926F927F92A6
:100F00008F929F92AF92BF92CF92DF92EF92FF9219
:100F10000F931F932F933F934F935F936F937F9301
:100F20008F939F93AF93BF93EF93FF93DF93CF93F1
:100F3000CDB7DEB72A97DEBFCDBF80914803909131
:100F400049030196909349038093480384369105A1
:100F500009F05AC5109249031092480380914A0340
:100F600090914B03892B09F01AC58091460390910B
:100F70004703019709F072C020915003309151034B
:100F8000243B31055CF480915703882339F42F5FAB
:100F90003F4F309351032093500327C08091570354
:100FA000882319F5109251031092500300E010E0CD
:100FB00019C080818C5F808381818C5F8183828175
:100FC0008C5F8283339664E0EC32F60791F784E518
:100FD00093E068E470E00E9445050F5F1F4F003208
:100FE000110519F0E4E5F3E0E4CF209150033091CE
:100FF00051032C3031055CF480915703882339F07C
:101000002F5F3F4F309351032093500327C08091AF
:101010005703882319F1109251031092500300E0F6
:1010200010E019C080818450808381818450818345
:10103000828184508283339674E0EC32F70791F713
:1010400084E593E068E470E00E9445050F5F1F4F60
:101050000032110519F0E4E5F3E0E4CF8091460396
:1010600090914703029709F005C3E0904E03F0907A
:101070004F0320914C0330914D03E114F10409F02A
:101080000BC1203231050CF0FAC081E0C82ED12C02
:1010900060E070E0C9C0FA0180819181FC01EE0F2F
:1010A000FF1FE80FF91FEC5AFC4F80818E5F808391
:1010B000FA0184859585FC01EE0FFF1FE80FF91FEB
:1010C000EC5AFC4F80818E5F808381818F5F8183AA
:1010D000FA01808D918DFC01EE0FFF1FE80FF91FC3
:1010E000EC5AFC4F80818E5F808381818E5F81838B
:1010F000F40180819181FC01EE0FFF1FE80FF91FC1
:10110000EC5AFC4F81818E5F8183F4018485958543
:10111000FC01EE0FFF1FE80FF91FEC5AFC4F828114
:101120008E5F8283F401808D918DFC01EE0FFF1F95
:10113000E80FF91FEC5AFC4F80818F5F808382811A
:101140008E5F8283F70180819181FC01EE0FFF1F8A
:10115000E80FF91FEC5AFC4F80818F5F80838281FA
:101160008E5F8283F70184859585FC01EE0FFF1F5A
:10117000E80FF91FEC5AFC4F82818E5F82838D91BC
:101180009C911197FC01EE0FFF1FE80FF91FEC5A1D
:10119000FC4F81818E5F81831C968D919C911D9760
:1011A000FC01EE0FFF1FE80FF91FEC5AFC4F808186
:1011B0008E5F808381818E5F818358968D919C9113
:1011C0005997FC01EE0FFF1FE80FF91FEC5AFC4F77
:1011D00080818E5F808381818F5F8183F801808130
:1011E0009181FC01EE0FFF1FE80FF91FEC5AFC4F35
:1011F00080818E5F8083485B5F4F88E490E0880E3B
:10120000991EE80EF91EA85BBF4F085B1F4F0A1519
:101210001B0509F040CF0894C11CD11C6E5F7F4FA5
:1012200094E0C916D10421F1AB01440F551F425F70
:101230005D4F4B01880C991CE2E3F2E08E0E9F1E7D
:101240007B01EE0CFF1C80E192E0E80EF91EDB0151
:10125000AA0FBB1FA85DBD4F8601000F111F065BC3
:101260001D4F8CEDA82E82E0B82EA60EB71E13CF10
:101270002F5F3F4F30934D0320934C0370C181E0AB
:1012800090E090934F0380934E0380E290E0909320
:101290004D0380934C03EEC1203231050CF066C142
:1012A0002F5F3F4F30934D0320934C0340E050E0BD
:1012B00053C1EF81F885808191818330910599F147
:1012C000843091053CF48130910579F0029709F062
:1012D00062C019C08530910509F441C0853091057F
:1012E0009CF1069709F057C045C0F40180819181B7
:1012F000FC01EE0FFF1FE80FF91FEC5AFC4F808135
:101300008E5F808348C0F50180819181FC01EE0FE2
:10131000FF1FE80FF91FEC5AFC4F80818E5F80831E
:1013200081818F5F0FC0F60180819181FC01EE0FFA
:10133000FF1FE80FF91FEC5AFC4F80818E5F8083FE
:1013400081818E5F818327C0F70180819181FC01BB
:10135000EE0FFF1FE80FF91FEC5AFC4FF1CFF80119
:1013600080819181FC01EE0FFF1FE80FF91FEC5AFD
:10137000FC4F0EC0E985FA8580819181FC01EE0F5A
:10138000FF1FE80FF91FEC5AFC4F80818F5F8083AD
:1013900082818E5F8283ED81FE81808191818330A5
:1013A0009105A1F1843091053CF48130910579F0EB
:1013B000029709F063C019C08530910509F443C054
:1013C00085309105ACF1069709F058C047C08D9162
:1013D0009C911197FC01EE0FFF1FE80FF91FEC5ACB
:1013E000FC4F80818250808349C0EB81FC818081E9
:1013F0009181FC01EE0FFF1FE80FF91FEC5AFC4F23
:101400008081825080838181815010C0E981FA817E
:1014100080819181FC01EE0FFF1FE80FF91FEC5A4C
:10142000FC4F80818250808381818250818326C0DD
:10143000F10180819181FC01EE0FFF1FE80FF91F80
:10144000EC5AFC4FF1CFF20180819181FC01EE0F4B
:10145000FF1FE80FF91FEC5AFC4F0DC0F30180810C
:101460009181FC01EE0FFF1FE80FF91FEC5AFC4FB2
:101470008081815080838281825082836F5F7F4F21
:101480008F819885029698878F83ED81FE813296B1
:10149000FE83ED8312968B819C8102969C838B83C5
:1014A000E981FA813296FA83E98382E090E0280E9E
:1014B000391E480E591E680E791E880E991EA80EF8
:1014C000B91EC80ED91EE80EF91E0E5F1F4FE98522
:1014D000FA853296FA87E9876630710509F0E9CE18
:1014E0002F5F3F4F2630310591F1C901880F991FB9
:1014F000820F931F880F991F880F991FBC01625696
:101500007D4F78876F83FC01EA51FD4FFE83ED83A9
:10151000C901840F951FDC01AA0FBB1FA80FB91FBB
:10152000AA0FBB1FAA0FBB1FA25FBD4FBC83AB831B
:10153000BA83A9831D012D013D014D015D016D019E
:101540007D018D01BA87A98760E070E0B2CE4A5F65
:101550005F4F4C30510519F020E030E0C6CF84E5F4
:1015600093E068E470E00E94450584C010924D034A
:1015700010924C0301E010E081E0882E912CB6E03F
:10158000AB2EB12C69C08D919C911197019611964B
:101590009C938E93F2018081918101979183808346
:1015A0008D919C91119707971CF011969C928E92A9
:1015B000F30180819181079714F091828082F2017A
:1015C000808191811816190614F0B182A082FA0167
:1015D000808191811816190614F0B182A0822F5FC4
:1015E0003F4F1C968CE090E0480E591E445F5F4FC1
:1015F000680E791E2630310531F66A5F7F4F6C30F8
:10160000710529F1CB01880F991F860F971F880F4D
:10161000991F9601280F391F220F331FD901A25697
:10162000BD4F800F911F880F991F4EE9442E42E055
:10163000542E480E591EAC014A515D4F86EE682E5D
:1016400082E0782E620E731E20E030E09CCF0E5FA9
:101650001F4F0730110539F068010894C108D108FF
:1016600060E070E0CFCF0894E11CF11CF0924F03D2
:10167000E0924E038091460390914703039709F04F
:101680008EC140914E0350914F0320914C033091F5
:101690004D034115510509F07FC0203231050CF092
:1016A0006EC0AEE0B2E08D919C911197FC01EE0FFF
:1016B000FF1FE80FF91FEC5AFC4F82818E5F828377
:1016C00012968D919C911397FC01EE0FFF1FE80F6E
:1016D000F91FEC5AFC4F81818F5F818382818E5F7D
:1016E000828314968D919C911597FC01EE0FFF1F3C
:1016F000E80FF91FEC5AFC4F81818F5F8183828153
:101700008F5F828316968D919C911797FC01EE0F47
:10171000FF1FE80FF91FEC5AFC4F81818E5F818318
:1017200082818E5F828318968D919C911997FC011E
:10173000EE0FFF1FE80FF91FEC5AFC4F82818E5FFE
:1017400082831A968D919C911B97FC01EE0FFF1FCF
:10175000E80FF91FEC5AFC4F81818F5F81838281F2
:101760008E5F82831C9692E0AE39B90709F09BCF59
:101770002F5F3F4F30934D0320934C03DCC081E03B
:1017800090E090934F0380934E0380E290E090931B
:101790004D0380934C0303C1203231050CF0D2C0BD
:1017A0002F5F3F4F30934D0320934C038EE2E82E82
:1017B00083E0F82E0AE313E060E070E0AEC0423050
:1017C0005105E9F0433051052CF44130510509F041
:1017D00043C007C043305105F9F044305105E1F5ED
:1017E0002BC08D919C911197FC01EE0FFF1FE80F0C
:1017F000F91FEC5AFC4F82818E5F82832DC08D9140
:101800009C911197FC01EE0FFF1FE80FF91FEC5A96
:10181000FC4F82818E5F0CC08D919C911197FC01D1
:10182000EE0FFF1FE80FF91FEC5AFC4F82818F5F0C
:10183000828381818F5F0FC08D919C911197FC01F4
:10184000EE0FFF1FE80FF91FEC5AFC4F82818E5FED
:10185000828381818E5F818322303105E9F02330DC
:1018600031052CF42130310509F043C007C0233085
:101870003105F9F024303105E1F52BC08D919C91B3
:101880001197FC01EE0FFF1FE80FF91FEC5AFC4FF8
:101890008281825082832DC08D919C911197FC0191
:1018A000EE0FFF1FE80FF91FEC5AFC4F82818250A8
:1018B0000CC08D919C911197FC01EE0FFF1FE80F5A
:1018C000F91FEC5AFC4F82818150828381818150C3
:1018D0000FC08D919C911197FC01EE0FFF1FE80F37
:1018E000F91FEC5AFC4F82818250828381818250A1
:1018F00081830894C11CD11C1C96ECE0CE16D10447
:1019000009F05DCF6F5F7F4F82E090E0E80EF91E37
:101910000E5F1F4F6630710571F0F70140815181F4
:10192000F80120813181DB01AA0FBB1FA25FBD4FEF
:10193000CC24DD2444CF84E593E068E470E00E9489
:1019400045052DC010924D0310924C03EEE2F3E0DA
:10195000AAE3B3E061E070E0808191810196918318
:1019600080832D913C9111972F5F3F4F11963C93AF
:101970002E93059714F071836083253031051CF098
:1019800011967C936E933296129683E0EA33F807B1
:1019900019F74F5F5F4F50934F0340934E03809171
:1019A0004A0390914B03019779F582E00E940B075F
:1019B0009C019093530380935203A4E5B3E0FD018F
:1019C000108211821282339694E0EC32F907C1F74B
:1019D000203831055CF4E5E5F3E080E8821B808384
:1019E000339664E0ED32F607D1F708C0822F8058B5
:1019F0008C93139674E0AC32B707D1F784E593E08B
:101A000068E470E00E9445058EEF86BD2A96DEBF31
:101A1000CDBFCF91DF91FF91EF91BF91AF919F919A
:101A20008F917F916F915F914F913F912F911F9176
:101A30000F91FF90EF90DF90CF90BF90AF909F906D
:101A40008F907F906F905F904F903F902F900F906E
:101A50000FBE0F901F9018956F927F928F929F925A
:101A6000AF92BF92CF92DF92EF92FF920F931F93AC
:101A70007C015B010E94740D882777FD8095982F6B
:101A80000E94F7020E94D20D3B014C010027F7FC97
:101A90000095102FC801B7010E94F7027B018C014D
:101AA000CC24B7FCC094DC2CC601B5010E94F7021F
:101AB0009B01AC01C401B3010E94FD019B01AC017B
:101AC000C801B7010E949F010E945503CB011F91DD
:101AD0000F91FF90EF90DF90CF90BF90AF909F90CD
:101AE0008F907F906F90089597FB092E07260AD05C
:101AF00077FD04D00CD006D000201AF470956195C3
:101B00007F4F0895F6F7909581959F4F0895AA1BF2
:101B1000BB1B51E107C0AA1FBB1FA617B70710F0D8
:101B2000A61BB70B881F991F5A95A9F7809590950A
:101B3000BC01CD0108952F923F924F925F926F9218
:101B40007F928F929F92AF92BF92CF92DF92EF924D
:101B5000FF920F931F93CF93DF93CDB7DEB7CA1BCE
:101B6000DB0B0FB6F894DEBF0FBECDBF09942A88F9
:101B7000398848885F846E847D848C849B84AA84A1
:101B8000B984C884DF80EE80FD800C811B81AA812E
:101B9000B981CE0FD11D0FB6F894DEBF0FBECDBFF9
:101BA000ED0108953BD080F09F3740F491110EF085
:101BB0004DC060E070E080E89FEB089526F41B16AE
:101BC000611D711D811D01C01BC0882371F4772325
:101BD00021F09850872B762F07C0662311F49927A0
:101BE0000DC09051862B70E060E02AF09A95660F48
:101BF000771F881FDAF7880F9695879597F90895CC
:101C00009F3F31F0915020F4879577956795B79570
:101C1000880F911D9695879597F9089525D0A0F086
:101C2000BEE7B91788F4BB279F3860F41616B11DBC
:101C3000672F782F8827985FF7CF869577956795D8
:101C4000B11D93959639C8F30895E894BB2766278C
:101C50007727CB0197F9089557FD9058440F551FEA
:101C600059F05F3F71F04795880F97FB991F61F01E
:101C70009F3F79F087950895121613061406551F95
:101C8000F2CF4695F1DF08C0161617061806991F01
:101C9000F1CF86957105610508940895F894FFCFFA
:101CA0000000000000000000000102020303030323
:101CB00004040404040404040505050505050505DC
:101CC00005050505050505050606060606060606BC
:101CD00006060606060606060606060606060606A4
:101CE000060606060606060607070707070707078C
:101CF0000707070707070707070707070707070774
:101D00000707070707070707070707070707070763
:101D10000707070707070707070707070707070753
:101D2000070707070707070708080808080808083B
:101D30000808080808080808080808080808080823
:101D40000808080808080808080808080808080813
:101D50000808080808080808080808080808080803
:101D600008080808080808080808080808080808F3
:101D700008080808080808080808080808080808E3
:101D800008080808080808080808080808080808D3
:101D900008080808080808080808080808080808C3
:101DA00008080808080808080100010001000000F0
:101DB000010002000300040005000B000A000900F6
:101DC0000800070006000C000D000E000F001000B8
:101DD000110017001600150014001300120018005F
:101DE00019001A001B001C001D0023002200210006
:101DF00020001F001E0024002500260027002800C8
:101E000029002F002E002D002C002B002A0030006E
:101E1000310032003300340035003B003A00390015
:101E20003800370036003C003D003E003F004000D7
:101E300041004700460045004400430042000100C5
:101E40000600010006000100060002000500020075
:101E50000500020005000300040003000400030065
:101E60000400040003000400030004000300050054
:101E70000200050002000500020006000100060045
:101E80000100060001000600010006000100060036
:101E9000010001000600010006000100060002002A
:101EA0000500020005000200050003000400030015
:101EB0000400030004000400030004000300040005
:101EC00003000500020005000200050002000100F9
:101ED00002000300040001000200040001000200EF
:061EE000030004000100F4
:00000001FF
